:020000040800F2
:100000003040002039C5010879D0010885D00108A9
:100010008DD00108DDD60108E5D6010800000000FA
:10002000000000000000000000000000EDD6010804
:10003000F9D601080000000005D7010811D7010812
:100040004DC601084DC601084DC601084DC6010840
:100050004DC601084DC601084DC601084DC6010830
:100060004DC601084DC601084DC601084DC6010820
:100070004DC601084DC601084DC601084DC6010810
:100080004DC601084DC601084DC601084DC6010800
:100090004DC601084DC601084DC601084DC60108F0
:1000A0004DC601084DC601084DC601084DC60108E0
:1000B0004DC601084DC601084DC601084DC60108D0
:1000C0004DC601084DC601084DC601084DC60108C0
:1000D0004DC601081DD701084DC601084DC60108CF
:1000E0004DC601084DC601084DC6010800000000BC
:1000F0000000000000000000000000000000000000
:1001000000000000000000004DC601084DC60108B7
:100110004DC601084DC601084DC601084DC601086F
:100120004DC601084DC601084DC601084DC601085F
:100130004DC601084DC601084DC601084DC601084F
:100140004DC601084DC601084DC6010879D7010802
:10015000000000000000000000000000000000009F
:10016000000000000000000000000000000000008F
:10017000000000000000000000000000000000007F
:10018000000000000000000000000000000000006F
:10019000000000000000000000000000000000005F
:1001A000000000000000000000000000000000004F
:1001B000000000000000000000000000000000003F
:1001C000000000000000000000000000000000002F
:1001D000000000000000000000000000000000001F
:0401E0005FF8E0F1F3
:1001E400032AC9B270B407D822B10023C154013321
:1001F4009342FBD170BC704785070244034603D089
:1002040003F8011B9C07FBD10C02D51A64182604C1
:100214003F2D34441ADD1C605C609C60DC601C6112
:100224005C619C61DC611C625C629C62DC621C63DC
:100234005C639C63DC634033D51A3F2DEBDC05E043
:100244001C605C609C60DC601033D51A0F2DF7DCF9
:1002540002E043F8044BD51A032DFADC9342C9D2C9
:1002640003F8011B9342FBD1C4E700BF4FF0000425
:10027400EFF309842046704723461846034683F368
:10028400098870474FF00004EFF308842046704754
:1002940023461846034683F30888704790B482B017
:1002A40000AF4FF000037B60EFF312847C607B6847
:1002B400184607F10807BD4690BC704780B483B068
:1002C40000AF78607B6883F3118807F10C07BD46A3
:1002D40080BC704790B482B000AF4FF000037B60E5
:1002E400EFF310847C607B68184607F10807BD466D
:1002F40090BC704780B483B000AF78607B6883F3B0
:10030400108807F10C07BD4680BC704790B482B0DA
:1003140000AF4FF000037B60EFF313847C607B68D5
:10032400184607F10807BD4690BC704780B483B0F7
:1003340000AF78607B6883F3138807F10C07BD4630
:1003440080BC704790B482B000AF4FF000037B6074
:10035400EFF314847C607B68184607F10807BD46F8
:1003640090BC704780B483B000AF78607B6883F33F
:10037400148807F10C07BD4680BC704790B484B064
:1003840000AF78604FF00003FB607B681CBAFC6030
:10039400FB68184607F11007BD4690BC704700BFC4
:1003A40090B484B000AF0346FB804FF00003FB60C1
:1003B400FB885CBAFC60FB68184607F11007BD4671
:1003C40090BC704790B484B000AF0346FB804FF0FC
:1003D4000003FB60FB88DCBAFC60FB68184607F18D
:1003E4001007BD4690BC704790B484B000AF7860ED
:1003F4004FF00003FB607B6893FAA3F4FC60FB6896
:10040400184607F11007BD4690BC704790B484B0FD
:1004140000AF78604FF00003FB737B68D3E84F4F65
:10042400FC73FB7B184607F11007BD4690BC704770
:1004340090B484B000AF78604FF00003FB817B6818
:10044400D3E85F4FFC81FB89184607F11007BD46CE
:1004540090BC704790B484B000AF78604FF0000354
:10046400FB607B6853E8004FFC60FB68184607F1AB
:100474001007BD4690BC704790B484B000AF0346EB
:100484003960FB714FF00003FB603B68FA79C3E805
:10049400442FFC60FB68184607F11007BD4690BC6A
:1004A400704700BF90B484B000AF03463960FB804E
:1004B4004FF00003FB603B68FA88C3E8542FFC60EC
:1004C400FB68184607F11007BD4690BC704700BF93
:1004D40090B484B000AF786039604FF00003FB60E3
:1004E4003B687A6843E80024FC60FB68184607F11F
:1004F4001007BD4690BC704780B582B000AF40F293
:100504008D73C0F6010398474FF08003BB704FF022
:100514004003BB804FF00003FB703B46184640F697
:10052400E503C0F6010398474FF00003BB703B4658
:10053400184640F6E503C0F6010398474FF0000063
:1005440040F6E943C0F601039847034618464BF6C4
:100554003143C0F60103984740F6B153C0F6010396
:1005640098474BF20943C0F60103984707F108077F
:10057400BD4680BD80B586B000AF13460246FA7111
:100584000A46BA71BB80FB79BB73BB79FB73BB882A
:100594003B82FB79184640F60143C0F601039847B5
:1005A40007F10C03184640F6E503C0F6010398472B
:1005B400FB795BB2002B10DBFB7903F07F03184659
:1005C40040F6E943C0F601039847786178694BF631
:1005D4003143C0F60103984716E0FB7903F07F032B
:1005E400184640F6B143C0F60103984778617B6929
:1005F4004FF000021A73FB7918464FF0200140F2C5
:100604009563C0F60003984707F11807BD4680BDFF
:1006140080B584B000AF0346FB714FF00003FB606C
:10062400FB7903F07F03184640F6B143C0F601039B
:100634009847B860B8684CF2A523C0F60103984700
:10064400F860FB68184607F11007BD4680BD00BF7F
:1006540080B584B000AF0346FB714FF00003FB602C
:10066400FB7903F07F03184640F6E943C0F6010323
:100674009847B860B8684CF2A523C0F601039847C0
:10068400F860FB68184607F11007BD4680BD00BF3F
:1006940080B584B000AF03463960FB71FB7903F089
:1006A4007F03184640F6B143C0F601039847F8604B
:1006B400FB79802B06D13B68102B03D1FB684FF0EC
:1006C40001025A70F86839684CF26D33C0F60103C0
:1006D400984707F11007BD4680BD00BF80B584B0C0
:1006E40000AF03463960FB71FB7903F07F031846C2
:1006F40040F6E943C0F601039847F860F8683968A2
:100704004CF26D33C0F60103984707F11007BD465C
:1007140080BD00BF80B500AF40F66953C0F6010349
:10072400984780BD80B500AF40F62153C0F6010361
:10073400984780BD80B582B000AF02460B46FA717F
:10074400BB80BB88FA791046194640F29563C0F61F
:100754000003984707F10807BD4680BD80B582B005
:1007640000AF02460B46FA71BB80BB88FA7910468B
:10077400194640F2E163C0F60003984707F1080701
:10078400BD4680BD80B582B000AF0346FB71FB79E6
:10079400184640F21563C0F60003984703469BB21F
:1007A400184607F10807BD4680BD00BF80B582B07A
:1007B40000AF0346FB71FB79184640F25563C0F65F
:1007C4000003984703469BB2184607F10807BD4645
:1007D40080BD00BF80B582B000AF0346FB71FB79DA
:1007E40018464FF0300140F29563C0F60003984775
:1007F40007F10807BD4680BD80B582B000AF03464F
:10080400FB71FB7918464FF4405140F2E163C0F6A6
:100814000003984707F10807BD4680BD80B582B044
:1008240000AF0346FB71FB79184640F21563C0F62E
:10083400000398470346102B14BF002301239BB2E7
:10084400184607F10807BD4680BD00BF80B582B0D9
:1008540000AF0346FB71FB79184640F25563C0F6BE
:10086400000398470346B3F5805F14BF00230123B8
:100874009BB2184607F10807BD4680BD80B483B01B
:1008840000AF02460B46FA71BB8007F10C07BD4668
:1008940080BC704780B483B000AF02460B46FA7147
:1008A400BB8007F10C07BD4680BC704780B485B09F
:1008B40000AF02460B46FA71BB714FF00003FB8197
:1008C400BB799AB2FB794FEA03239BB213439BB2E1
:1008D400FB81FB89184607F11407BD4680BC7047AD
:1008E40080B485B000AF0346FB804FF00003FB7378
:1008F4004FF00003BB81FB88FB73FB884FEA132393
:100904009BB29AB2FB7B4FEA03239BB213439BB285
:10091400BB81BB89184607F11407BD4680BC7047EC
:1009240080B584B000AF0346FB71FA794EF6747358
:10093400C0F6010353F8223018464FF0010143F288
:10094400E953C0F601039847FA794EF66C73C0F682
:10095400010333F81230BB814FF01003FB734FF0E7
:100964000303BB73FA7940F20003C2F2000353F8A5
:10097400222007F10C031046194641F2B953C0F680
:100984000103984707F11007BD4680BD80B483B0CA
:1009940000AF0346FB71FA7940F20003C2F2000390
:1009A40053F82220F9794EF66C73C0F6010333F83C
:1009B4001130136107F10C07BD4680BC704700BFBE
:1009C40080B483B000AF0346FB71FA7940F20003B0
:1009D400C2F2000353F82220F9794EF66C73C0F684
:1009E400010333F81130536107F10C07BD4680BC95
:1009F400704700BF80B483B000AF0346FB71FA793F
:100A040040F20003C2F2000353F82220F97940F2C5
:100A14000003C2F2000353F82130D968F8794EF686
:100A24006C73C0F6010333F810304B40D36007F108
:100A34000C07BD4680BC704780B586B000AF024647
:100A44000B46FA71BB71FA794EF69473C0F6010342
:100A540053F8223043F0010318464FF0010143F2EA
:100A6400E953C0F6010398474FF00403FB75FA7984
:100A74004EF68473C0F6010333F81230BB82FA7960
:100A840040F21003C2F2000353F8222007F11403CA
:100A94001046194641F2B953C0F601039847BB7991
:100AA400012B50D1FA794EF6C473C0F6010333F822
:100AB4001230DAB2F9794EF6D473C0F6010333F882
:100AC4001130DBB21046194642F23953C0F6010325
:100AD4009847FA794EF6B473C0F6010333F812302E
:100AE400FB604FF000033B74FB79002B03D04FF005
:100AF4000C037B7402E04FF008037B744FF0010396
:100B0400BB7407F10C0318464CF6A533C0F6010379
:100B14009847FA794EF6E473C0F6010333F81230BD
:100B2400DBB23B724FF00F037B724FF00F03BB72CB
:100B34004FF00103FB7207F10803184645F6CD3365
:100B4400C0F60103984707F11807BD4680BD00BFF2
:100B540080B582B000AF0346FB71FA7940F210030E
:100B6400C2F2000353F82220F9794EF68473C0F6DA
:100B7400010333F811301046194641F6AD03C0F6AF
:100B8400010398470346184607F10807BD4680BD90
:100B940080B584B000AF03463960FB71FA794EF634
:100BA400FC73C0F6010353F82220F9794FF20403D1
:100BB400C0F6010353F82130134343F001031846F0
:100BC4004FF0010143F2E953C0F601039847FB7962
:100BD400002B0FD1FA794EF6F473C0F6010353F8E3
:100BE400223018464FF0010143F2E953C0F60103E5
:100BF40098470EE0FA794EF6F473C0F6010353F801
:100C0400223018464FF0010143F28963C0F6010314
:100C140098474FF01803FB73FA794FF20C03C0F6B0
:100C2400010333F81230BB814FF00303BB73FA792D
:100C340040F23803C2F2000353F8222007F10C03F8
:100C44001046194641F2B953C0F6010398474FF0D4
:100C54000403FB73FA794FF21003C0F6010333F86F
:100C64001230BB81FA7940F24003C2F2000353F818
:100C7400222007F10C031046194641F2B953C0F67D
:100C840001039847FA7940F23003C2F2000353F8A3
:100C940022301846396843F63553C0F601039847A5
:100CA400FA7940F23003C2F2000353F822301846B6
:100CB4004FF0010144F26523C0F60103984707F1A0
:100CC4001007BD4680BD00BF80B582B000AF4FF0B5
:100CD40000004DF69113C0F6010398474FF0000051
:100CE4004DF6D113C0F6010398474DF28973C0F64F
:100CF400010398474FF4F853BB804FF00403FB7192
:100D040007F104034FF48050C4F20100194641F284
:100D1400B953C0F6010398474FF00403BB8007F1B1
:100D240004034FF4A050C4F20100194641F2B95330
:100D3400C0F60103984707F10807BD4680BD00BF10
:100D440080B582B000AF4FF0B0004FF0010143F224
:100D5400E953C0F6010398474FF4F853BB804FF0B2
:100D64000303BB714FF01803FB7107F104034FF445
:100D74008050C4F20100194641F2B953C0F6010390
:100D840098474FF00403BB8007F104034FF4A050CD
:100D9400C4F20100194641F2B953C0F60103984761
:100DA4004FF40063BB804FF04803FB7107F1040369
:100DB4004FF4E050C4F20100194641F2B953C0F6B1
:100DC400010398474FF002004FF0010143F24D53E5
:100DD400C0F60103984707F10807BD4680BD00BF70
:100DE40080B58EB000AF786039604FF47040C1F2C6
:100DF400000048F62D63C0F60103984740F24440D2
:100E0400C4F202004FF0000148F29573C0F60103EA
:100E1400984748F28003C4F20103FB607B683B619E
:100E24004FF010037B613B684FEA9303BB614FF0C3
:100E34000003FB614FF080033B624FF400737B625D
:100E44004FF40063BB624FF00003FB624FF40053A6
:100E54003B634FF000037B6307F10C0340F2444013
:100E6400C4F20200194648F26543C0F601039847EC
:100E740040F24440C4F202004FF0010148F295737D
:100E8400C0F60103984707F13807BD4680BD00BF8F
:100E940080B58EB000AF786039604FF47040C1F215
:100EA400000048F62D63C0F60103984740F2444021
:100EB400C4F202004FF0000148F29573C0F601033A
:100EC400984748F28003C4F20103FB607B683B61EE
:100ED4004FF000037B613B684FEA9303BB614FF023
:100EE4000003FB614FF080033B624FF400737B62AD
:100EF4004FF40063BB624FF00003FB624FF40053F6
:100F04003B634FF000037B6307F10C0340F2444062
:100F1400C4F20200194648F26543C0F6010398473B
:100F240040F24440C4F202004FF0010148F29573CC
:100F3400C0F60103984707F13807BD4680BD00BFDE
:100F440080B500AF4FF40050C1F2000048F69D3365
:100F5400C0F6010398470346184680BD80B582B0A9
:100F640000AF4FF44050C4F201004FF0000142F6CC
:100F74008D33C0F6000398474FF44050C4F201008B
:100F840042F21D43C0F6000398474FF480504FF0DF
:100F9400000143F2E953C0F6010398474FF02003E0
:100FA400BB804FF00403FB7107F104034FF40060AE
:100FB400C4F20100194641F2B953C0F6010398473F
:100FC4004FF04003BB8007F104034FF40060C4F208
:100FD4000100194641F2B953C0F6010398474FF096
:100FE4008003BB8007F104034FF40060C4F20100E6
:100FF400194641F2B953C0F6010398474FF0040370
:10100400BB8007F104034FF44060C4F201001946A9
:1010140041F2B953C0F60103984707F10807BD46EA
:1010240080BD00BF80B582B000AF4FF00C004FF020
:10103400010143F2E953C0F6010398474FF480508D
:101044004FF0010143F2E953C0F6010398474FF012
:101054002003BB804FF00303BB714FF01803FB71F7
:1010640007F104034FF40060C4F20100194641F291
:10107400B953C0F6010398474FF08003BB8007F1D2
:1010840004034FF40060C4F20100194641F2B9535D
:10109400C0F6010398474FF04003BB804FF00403B0
:1010A400FB7107F104034FF40060C4F20100194618
:1010B40041F2B953C0F6010398474FF00403BB80D3
:1010C4004FF01003FB7107F104034FF44060C4F2C6
:1010D4000100194641F2B953C0F60103984707F1DC
:1010E4000807BD4680BD00BF80B582B000AF4FF495
:1010F400A840C4F200004FF0000149F25553C0F675
:10110400010398474FF4A840C4F2000049F2951334
:10111400C0F6010398474FF400104FF0000143F26A
:101124008963C0F6010398474FF04003BB804FF03A
:101134000403FB7107F104034FF44060C4F201009F
:10114400194641F2B953C0F6010398474FF08003A2
:10115400BB8007F104034FF44060C4F20100194658
:1011640041F2B953C0F6010398474FF02003BB8006
:1011740007F104034FF44060C4F20100194641F240
:10118400B953C0F60103984707F10807BD4680BD6F
:1011940080B582B000AF4FF400104FF0010143F26C
:1011A4008963C0F6010398474FF008004FF001012E
:1011B40043F2E953C0F6010398474FF04003BB8064
:1011C4004FF00303BB714FF01C03FB7107F10403E1
:1011D4004FF44060C4F20100194641F2B953C0F61D
:1011E400010398474FF08003BB8007F104034FF4D9
:1011F4004060C4F20100194641F2B953C0F601033C
:1012040098474FF02003BB804FF04803FB7107F170
:1012140004034FF44060C4F20100194641F2B9538B
:10122400C0F60103984707F10807BD4680BD00BF1B
:1012340080B400AF4FF44053C4F202034FF00102F4
:101244009A60BD4680BC704780B483B000AF7860BC
:101254004FF44053C4F202037A681A604FF44053C7
:10126400C4F202031B68184607F10C07BD4680BC94
:10127400704700BF80B485B000AF786039604FF02C
:101284000003FB604FF00003FB600EE04FF440539B
:10129400C4F20203FA684FEA820279688A18126873
:1012A4001A60FB6803F10103FB60FA683B689A4229
:1012B400ECD34FF44053C4F202031B68184607F101
:1012C4001407BD4680BC704780B400AF4FF4405350
:1012D400C4F202031B681846BD4680BC704700BFB9
:1012E40080B483B000AF0346FB714FF44053C4F2A3
:1012F4000203FA791A7107F10C07BD4680BC7047E6
:1013040080B400AF4FF44053C4F202031B79DBB244
:101314001846BD4680BC704780B584B000AF786085
:101324004FF00003FB607B68002B10D07B68012B1F
:101334000DD07B68022B0AD04EF61840C0F601008F
:1013440040F203114EF60D43C0F6010398474FF4E3
:101354000053C4F202031B68FB60FB6803F038030C
:10136400FB60FA687B681343FB604FF40053C4F2DC
:101374000203FA681A6007F11007BD4680BD00BF7A
:1013840080B582B000AF78607B68082B0DD07B6895
:10139400002B0AD04EF61840C0F601004FF48E71AF
:1013A4004EF60D43C0F6010398474FF40053C4F2C0
:1013B40002034FF40052C4F20202126822F008023F
:1013C4001A604FF40053C4F202034FF40052C4F203
:1013D400020211687A680A431A6007F10807BD46D9
:1013E40080BD00BF80B582B000AF78607B68102BF1
:1013F4000DD07B68002B0AD04EF61840C0F60100D1
:1014040040F22F114EF60D43C0F6010398474FF4F6
:101414000053C4F202034FF40052C4F202021268F1
:1014240022F010021A604FF40053C4F202034FF486
:101434000052C4F2020211687A680A431A6007F182
:101444000807BD4680BD00BF80B400AF4FF4005311
:10145400C4F2020340F22312C4F267525A604FF4FA
:101464000053C4F2020348F6AB12CCF6EF525A60B2
:10147400BD4680BC704700BF80B400AF4FF400533A
:10148400C4F2020340F22312C4F267525A604FF4CA
:101494000053C4F2020348F6AB12CCF6EF525A6082
:1014A400BD4680BC704700BF80B400AF4FF400530A
:1014B400C4F202034FF40052C4F20202126942F071
:1014C40080021A61BD4680BC704700BF80B400AF83
:1014D4004FF40053C4F202034FF40052C4F2020268
:1014E400126942F080021A61BD4680BC704700BF99
:1014F40080B584B000AF78604FF00403FB737A6862
:101504006FF078439A4206D97A684FF6FE73C0F6B4
:101514000F039A420AD94EF61840C0F6010040F271
:10152400A7114EF60D43C0F6010398474FF430203F
:1015340042F2F913C0F6000398470346FB73FB7BA2
:10154400042B33D14FF40053C4F202034FF400527E
:10155400C4F20202126942F002021A614FF400530B
:10156400C4F202037A685A614FF40053C4F20203CE
:101574004FF40052C4F20202126942F040021A61AE
:101584004FF4302042F2F913C0F6000398470346A3
:10159400FB734FF40053C4F202034FF40052C4F23D
:1015A4000202116941F6FD720A401A61FB7B18467A
:1015B40007F11007BD4680BD80B582B000AF4FF083
:1015C4000403FB714FF4302042F2F913C0F6000318
:1015D40098470346FB71FB79042B2DD14FF400533C
:1015E400C4F202034FF40052C4F20202126942F040
:1015F40004021A614FF40053C4F202034FF4005280
:10160400C4F20202126942F040021A614FF430201F
:1016140042F2F913C0F6000398470346FB714FF4F6
:101624000053C4F202034FF40052C4F202021169DF
:1016340041F6FB720A401A61FB79184607F1080764
:10164400BD4680BD80B582B000AF4FF00403FB718E
:101654004FF4302042F25123C0F60003984703466A
:10166400FB71FB79042B2DD14FF40053C4F2020318
:101674004FF40052C4F20202126942F004021A61E9
:101684004FF40053C4F202034FF40052C4F20202B6
:10169400126942F040021A614FF4302042F25123A1
:1016A400C0F6000398470346FB714FF40053C4F29D
:1016B40002034FF40052C4F20202116941F6FB72B4
:1016C4000A401A61FB79184607F10807BD4680BD38
:1016D40080B582B000AF4FF0A503FB804FF0040348
:1016E4007B7141F61573C0F6000398470346002B3F
:1016F40002D04FF00003FB804FF4302042F2F91384
:10170400C0F60003984703467B717B79042B7ED196
:101714004FF40053C4F2020340F22312C4F267529E
:101724009A604FF40053C4F2020348F6AB12CCF6AD
:10173400EF529A604FF40053C4F202034FF4005284
:10174400C4F20202126942F020021A614FF40053FB
:10175400C4F202034FF40052C4F20202126942F0CE
:1017640040021A614FF4302042F2F913C0F600032C
:10177400984703467B717B79042B38D14FF400538F
:10178400C4F202034FF40052C4F20202116941F69A
:10179400DF720A401A614FF40053C4F202034FF49B
:1017A4000052C4F20202126942F010021A614FF4AC
:1017B4007843C1F6FF73FA881A804FF4005042F25E
:1017C400F913C0F60003984703467B717B79052B18
:1017D4001DD04FF40053C4F202034FF40052C4F27C
:1017E4000202116941F6EF720A401A610FE07B7937
:1017F400052B0CD04FF40053C4F202034FF40052F3
:10180400C4F20202116941F6EF720A401A617B794F
:10181400184607F10807BD4680BD00BF80B584B0F7
:1018240000AF786039604FF00403FB734FF000039E
:10183400BB607A686FF078439A4206D97A684FF6AB
:10184400FE73C0F60F039A420AD94EF61840C0F64A
:10185400010040F2AF214EF60D43C0F60103984754
:101864004FF4005042F2F913C0F6000398470346C0
:10187400FB73FB7B042B49D14FF40053C4F20203E6
:101884004FF40052C4F20202126942F001021A61DA
:101894007B683A6892B21A804FF4005042F2F9130E
:1018A400C0F6000398470346FB73FB7B042B20D14F
:1018B4007B6803F10203BB60BB683A684FEA1242DB
:1018C40092B21A804FF4005042F2F913C0F60003AA
:1018D40098470346FB734FF40053C4F202034FF4DA
:1018E4000052C4F20202116941F6FE720A401A6102
:1018F4000CE04FF40053C4F202034FF40052C4F25C
:101904000202116941F6FE720A401A61FB7B184615
:1019140007F11007BD4680BD80B584B000AF786084
:101924000B467B804FF00403FB737A686FF07843B7
:101934009A4206D97A684FF6FE73C0F60F039A42AC
:101944000AD94EF61840C0F6010040F25E314EF658
:101954000D43C0F6010398474FF4005042F2F913C7
:10196400C0F6000398470346FB73FB7B042B24D18A
:101974004FF40053C4F202034FF40052C4F20202C3
:10198400126942F001021A617B687A881A804FF466
:10199400005042F2F913C0F6000398470346FB7364
:1019A4004FF40053C4F202034FF40052C4F2020293
:1019B400116941F6FE720A401A61FB7B184607F171
:1019C4001007BD4680BD00BF80B584B000AF78600D
:1019D4000B46FB704FF00403FB737A684FF6040365
:1019E400C1F6FF739A4211D07A684FF60603C1F626
:1019F400FF739A420AD04EF61840C0F6010040F236
:101A0400A5314EF60D43C0F6010398474FF400503C
:101A140042F2F913C0F6000398470346FB73FB7BBD
:101A2400042B3AD14FF40053C4F2020340F22312C0
:101A3400C4F267529A604FF40053C4F2020348F6AA
:101A4400AB12CCF6EF529A604FF40053C4F2020387
:101A54004FF40052C4F20202126942F010021A61F9
:101A64007B68FA7892B21A804FF4005042F2F9136C
:101A7400C0F6000398470346FB73FB7B052B0CD091
:101A84004FF40053C4F202034FF40052C4F20202B2
:101A9400116941F6EF720A401A61FB7B184607F19F
:101AA4001007BD4680BD00BF80B586B000AF78602A
:101AB4004FF6FF73BB824FF6FF737B824FF6FF73C3
:101AC4003B824FF6FF73FB814FF00403FB757B6889
:101AD400002B0AD14EF61840C0F6010040F2D63170
:101AE4004EF60D43C0F6010398477B686FEA030383
:101AF4007B607B689BB2DBB2BB827B6803F47F4371
:101B04004FEA13237B827B6803F47F034FEA13437A
:101B14003B827B684FEA1363FB814FF4005042F22F
:101B2400F913C0F6000398470346FB75FB7D042BAD
:101B34007ED14FF40053C4F2020340F22312C4F2E4
:101B440067529A604FF40053C4F2020348F6AB1292
:101B5400CCF6EF529A604FF40053C4F202034FF4F0
:101B64000052C4F20202126942F010021A61BB8AE6
:101B7400FF2B0ED04FF47843C1F6FF73BA8A1A8153
:101B84004FF4005042F2F913C0F60003984703469D
:101B9400FB75FB7D042B11D17B8AFF2B0ED04FF4F8
:101BA4007843C1F6FF737A8A5A814FF4005042F2A7
:101BB400F913C0F6000398470346FB75FB7D042B1D
:101BC40011D13B8AFF2B0ED04FF47843C1F6FF733B
:101BD4003A8A9A814FF4005042F2F913C0F6000396
:101BE40098470346FB75FB7D042B11D1FB89FF2B22
:101BF4000ED04FF47843C1F6FF73FA89DA814FF4BB
:101C0400005042F2F913C0F6000398470346FB75EF
:101C1400FB7D052B0CD04FF40053C4F202034FF4A8
:101C24000052C4F20202116941F6EF720A401A61CD
:101C3400FB7D184607F11807BD4680BD80B584B00A
:101C440000AF0346FB714FF00403FB73FB79002BD9
:101C54000DD0FB79012B0AD04EF61840C0F60100D6
:101C640040F21D414EF60D43C0F6010398474FF470
:101C7400302042F2F913C0F6000398470346FB7381
:101C8400FB7B042B40F08B804FF40053C4F202031F
:101C940040F22312C4F267529A604FF40053C4F224
:101CA400020348F6AB12CCF6EF529A604FF400539D
:101CB400C4F202034FF40052C4F20202126942F069
:101CC40020021A614FF40053C4F202034FF400528D
:101CD400C4F20202126942F040021A614FF4302049
:101CE40042F2F913C0F6000398470346FB73FB7BEB
:101CF400042B44D14FF40053C4F202034FF40052B6
:101D0400C4F20202116941F6DF720A401A614FF40B
:101D14000053C4F202034FF40052C4F202021269E7
:101D240042F010021A61FB79002B07D04FF478437C
:101D3400C1F6FF734FF000021A8006E04FF47843B7
:101D4400C1F6FF734FF0A5021A804FF4302042F21F
:101D5400F913C0F6000398470346FB73FB7B052B7E
:101D64001DD04FF40053C4F202034FF40052C4F2E6
:101D74000202116941F6EF720A401A610FE0FB7B1F
:101D8400052B0CD04FF40053C4F202034FF400525D
:101D9400C4F20202116941F6DF720A401A61FB7B48
:101DA400184607F11007BD4680BD00BF80B584B05A
:101DB40000AF13460246FA800A46BA807B804FF091
:101DC4000403FB73FB88012B0DD0FB88002B0AD086
:101DD4004EF61840C0F6010040F263414EF60D4342
:101DE400C0F601039847BB88022B0DD0BB88002B9B
:101DF4000AD04EF61840C0F6010040F264414EF697
:101E04000D43C0F6010398477B88042B0DD07B88D3
:101E1400002B0AD04EF61840C0F6010040F265418E
:101E24004EF60D43C0F6010398474FF40053C4F235
:101E3400020340F22312C4F267529A604FF4005333
:101E4400C4F2020348F6AB12CCF6EF529A604FF498
:101E5400005042F2F913C0F6000398470346FB739F
:101E6400FB7B042B33D14FF40053C4F202034FF431
:101E74000052C4F20202126942F010021A614FF4D5
:101E84007843C1F6FF737988BA880A4391B2FA8815
:101E94000A4392B242F0F80292B25A804FF40050D0
:101EA40042F2F913C0F6000398470346FB73FB7B29
:101EB400052B0CD04FF40053C4F202034FF400522C
:101EC400C4F20202116941F6EF720A401A61FB7B07
:101ED400184607F11007BD4680BD00BF80B400AFAF
:101EE4004FF40053C4F20203DB694FEA930318462C
:101EF400BD4680BC704700BF80B400AF4FF40053B0
:101F0400C4F202031B6A1846BD4680BC704700BF7A
:101F140080B483B000AF4FF00003FB714FF4005363
:101F2400C4F20203DB6903F00203002B03D04FF079
:101F34000103FB7102E04FF00003FB71FB791846CB
:101F440007F10C07BD4680BC704700BF80B483B066
:101F540000AF4FF00003FB714FF40053C4F20203CF
:101F64001B6803F02003002B03D04FF00103FB7127
:101F740002E04FF00003FB71FB79184607F10C07F0
:101F8400BD4680BC704700BF80B582B000AF7860AA
:101F94000B46FB707B6823F4A053002B02D17B68B3
:101FA400002B0AD14EF61840C0F6010040F22D5124
:101FB4004EF60D43C0F601039847FB78002B0DD075
:101FC400FB78012B0AD04EF61840C0F6010040F20F
:101FD4002E514EF60D43C0F601039847FB78002BB3
:101FE4000CD04FF40053C4F202034FF40052C4F275
:101FF400020211697A680A431A610DE04FF4005332
:10200400C4F202034FF40052C4F2020211697A6866
:102014006FEA02020A401A6107F10807BD4680BD53
:1020240080B584B000AF78604FF00003FB737B6829
:10203400012B22D07B68202B1FD07B68042B1CD063
:102044007B68102B19D07B68012B16D07B68202B62
:1020540013D07B68042B10D07B68102B0DD07B68C9
:10206400012B0AD04EF61840C0F6010040F27A5116
:102074004EF60D43C0F6010398477B68012B11D13E
:102084004FF40053C4F20203DB6903F00103DBB233
:10209400002B03D04FF00103FB7313E04FF0000358
:1020A400FB730FE04FF40053C4F20203DA687B6859
:1020B4001340002B03D04FF00103FB7302E04FF0F9
:1020C4000003FB73FB7B184607F11007BD4680BD78
:1020D40080B582B000AF78607B6823F03503002BB5
:1020E40002D17B68002B0AD14EF61840C0F60100DD
:1020F40040F2B6514EF60D43C0F6010398474FF433
:102104000053C4F202037A68DA6007F10807BD4697
:1021140080BD00BF80B483B000AF4FF00403FB71F7
:102124004FF40053C4F20203DB6803F00103DBB293
:10213400002B03D04FF00103FB711CE04FF400535C
:10214400C4F20203DB6803F00403002B03D04FF056
:102154000203FB710FE04FF40053C4F20203DB6887
:1021640003F01003002B03D04FF00303FB7102E0D4
:102174004FF00403FB71FB79184607F10C07BD46C9
:1021840080BC704780B483B000AF4FF00403FB7190
:102194004FF40053C4F20203DB6803F00103DBB223
:1021A400002B03D04FF00103FB711CE04FF40053EC
:1021B400C4F20203DB6803F00403002B03D04FF0E6
:1021C4000203FB710FE04FF40053C4F20203DB6817
:1021D40003F01003002B03D04FF00303FB7102E064
:1021E4004FF00403FB71FB79184607F10C07BD4659
:1021F40080BC704780B584B000AF78604FF00403B2
:10220400FB7342F28913C0F6000398470346FB733D
:102214000AE042F28913C0F6000398470346FB73B1
:102224007B6803F1FF337B60FB7B012B02D17B686E
:10223400002BEED17B68002B02D14FF00503FB731A
:10224400FB7B184607F11007BD4680BD80B584B0FE
:1022540000AF78604FF00403FB7342F28913C0F6B9
:10226400000398470346FB730AE042F28913C0F661
:10227400000398470346FB737B6803F1FF337B60DD
:10228400FB7B012B02D17B68002BEED17B68002BFA
:1022940002D14FF00503FB73FB7B184607F11007CF
:1022A400BD4680BD80B582B000AF0346FB80FA888E
:1022B40045F255539A420DD0FB88002B0AD04EF6B6
:1022C4002C40C0F601004FF061014EF60D43C0F6FC
:1022D400010398474FF44053C4F20003FA881A608C
:1022E40007F10807BD4680BD80B582B000AF034644
:1022F400FB71FB79002B1CD0FB79012B19D0FB79E6
:10230400022B16D0FB79032B13D0FB79042B10D0AE
:10231400FB79052B0DD0FB79062B0AD04EF62C4009
:10232400C0F601004FF075014EF60D43C0F60103EF
:1023340098474FF44053C4F20003FA795A6007F106
:102344000807BD4680BD00BF80B582B000AF03461C
:10235400FB80FA8840F6FF739A420AD94EF62C4065
:10236400C0F601004FF082014EF60D43C0F60103A2
:1023740098474FF44053C4F20003FA889A6007F177
:102384000807BD4680BD00BF80B400AF4FF4405382
:10239400C4F200034AF6AA221A60BD4680BC704704
:1023A40080B400AF4FF44053C4F200034CF6CC4267
:1023B4001A60BD4680BC704780B584B000AF034648
:1023C400FB804FF00003FB73FB88012B0DD0FB88CF
:1023D400022B0AD04EF62C40C0F601004FF0A701A4
:1023E4004EF60D43C0F6010398474FF44053C4F230
:1023F4000003DA68FB881340002B03D04FF001037D
:10240400FB7302E04FF00003FB73FB7B184607F1FC
:102414001007BD4680BD00BF80B582B000AF7860B4
:102424007A684FF44053C4F201039A4218D07A6890
:102434004FF46053C4F200039A4211D07A684FF407
:102444007053C4F200039A420AD04EF64040C0F6DC
:1024540001004FF07C014EF60D43C0F6010398478E
:102464007A684FF44053C4F201039A4212D14FF4F4
:1024740080504FF0010143F2C173C0F60103984745
:102484004FF480504FF0000143F2C173C0F60103D2
:10249400984732E07A684FF46053C4F200039A42DA
:1024A40012D14FF480404FF0010143F66103C0F6AE
:1024B400010398474FF480404FF0000143F6610355
:1024C400C0F60103984718E07A684FF47053C4F2D9
:1024D40000039A4211D14FF400404FF0010143F63A
:1024E4006103C0F6010398474FF400404FF0000128
:1024F40043F66103C0F60103984707F10807BD4698
:1025040080BD00BF80B584B000AF786039604FF003
:102514000003FB817A684FF44053C4F201039A42EA
:1025240018D07A684FF46053C4F200039A4211D071
:102534007A684FF47053C4F200039A420AD04EF6FC
:102544004040C0F601004FF0A5014EF60D43C0F621
:10255400010398473B681B88002B19D03B681B88F4
:10256400B3F5806F14D03B681B88B3F5004F0FD0D0
:102574003B681B88B3F5404F0AD04EF64040C0F686
:1025840001004FF0A8014EF60D43C0F60103984731
:102594003B685B88B3F5827F0ED03B685B88002B79
:1025A4000AD04EF64040C0F601004FF0A9014EF6A5
:1025B4000D43C0F6010398473B689B88B3F5006F51
:1025C4000ED03B689B88002B0AD04EF64040C0F6E4
:1025D40001004FF0AA014EF60D43C0F601039847DF
:1025E4003B68DB88002B0ED03B68DB88022B0AD0CB
:1025F4004EF64040C0F601004FF0AB014EF60D43DD
:10260400C0F6010398473B681B89002B0ED03B683A
:102614001B89012B0AD04EF64040C0F601004FF052
:10262400AC014EF60D43C0F6010398473B685B8945
:10263400B3F5007F0ED03B685B89002B0AD04EF6C1
:102644004040C0F601004FF0AD014EF60D43C0F618
:10265400010398473B689B89002B26D03B689B89E4
:10266400082B22D03B689B89102B1ED03B689B898A
:10267400182B1AD03B689B89202B16D03B689B896A
:10268400282B12D03B689B89302B0ED03B689B894A
:10269400382B0AD04EF64040C0F601004FF0AE0190
:1026A4004EF60D43C0F6010398473B68DB89002BC7
:1026B4000ED03B68DB89802B0AD04EF64040C0F632
:1026C40001004FF0AF014EF60D43C0F601039847E9
:1026D4003B681B8A002B0AD14EF64040C0F601002D
:1026E4004FF0B0014EF60D43C0F6010398477B68E6
:1026F4001B88FB81FB8903F44153FB813B681A88E7
:102704003B685B8813439AB23B689B8813439AB235
:102714003B68DB8813439AB23B681B8913439AB224
:102724003B685B8913439AB23B689B8913439AB213
:102734003B68DB8913439AB2FB891343FB817B68B3
:10274400FA891A807B689B8B9BB223F400639AB24C
:102754007B689A833B681A8A7B681A8207F11007A0
:10276400BD4680BD80B58CB000AF786039604FF055
:102774000003FB834FF00203FB854FF00003BB858E
:102784004FF001037B854FF000037B624FF00003A1
:102794003B627A684FF46053C4F200039A4211D04A
:1027A4007A684FF47053C4F200039A420AD04EF68A
:1027B4004040C0F601004FF0E5014EF60D43C0F66F
:1027C400010398473B681B88002B19D03B681B8882
:1027D400B3F5807F14D03B681B88B3F5007F0FD01E
:1027E4003B681B88B3F5407F0AD04EF64040C0F6E4
:1027F40001004FF0E6014EF60D43C0F60103984781
:102804003B685B88002B1AD03B685B88102B16D082
:102814003B685B88202B12D03B685B88302B0ED042
:102824003B685B88B02B0AD04EF64040C0F60100EE
:102834004FF0E7014EF60D43C0F6010398473B689D
:102844009B88002B16D03B689B88012B12D03B68D9
:102854009B88032B0ED03B689B88052B0AD04EF631
:102864004040C0F601004FF0E8014EF60D43C0F6BB
:10287400010398473B68DB88B3F5007F0ED03B68C3
:10288400DB88002B0AD04EF64040C0F601004FF022
:10289400E9014EF60D43C0F6010398473B689A6878
:1028A40041F63F739A4207D93B689A684FF46E43E6
:1028B400C0F202039A420ED93B689B68022B0AD0ED
:1028C4004EF64040C0F601004FF0EA014EF60D43CB
:1028D400C0F6010398473B689B89002B0ED03B68E8
:1028E4009B89082B0AD04EF64040C0F601004FF0F9
:1028F400EB014EF60D43C0F6010398477B689B8BB2
:102904009BB223F47A6323F01F039AB27B689A8301
:102914007B684FF002021A847B689B8BFB833B68C5
:102924009B68022B06D14FF00003BB854FF00203D6
:10293400FB85A8E03B689B88002B03D14FF0010383
:102944007B8502E04FF002037B857A684FF4605385
:10295400C4F200039A4203D14FF400337B6202E0D5
:102964004FF480237B624FF48053C4F20203DA6A8B
:102974007B6A1340002B34D04FF48053C4F202031B
:10298400DB6A03F470434FEA13337B627B6A052BE3
:1029940007D97B6A0E2B04D87B6A03F102037B629E
:1029A40005E07B6A0F2B02D14FF014037B624FF4D6
:1029B4008053C4F20203DB6A03F0F0034FEA1313FB
:1029C40003F101033B6247F64003C0F27D133A6A08
:1029D400B3FBF2F37A6A02FB03F34FEA43033B626D
:1029E40009E007F10803184643F2ED23C0F601039A
:1029F4009847BB683B623B68DB88B3F5007F13D123
:102A04003B6A4FEA132213464FEA83039B184FEAAB
:102A140043031A463B689B68B2FBF3F39BB203F192
:102A240005039BB27B6215E07B8D4FEA43133A6A40
:102A3400B2FBF3F213464FEA83039B184FEA4303B6
:102A44001A463B689B68B2FBF3F39BB203F10503A0
:102A54009BB27B627A6A4CF6CD43CCF6CC43A3FBA3
:102A640002134FEAD3037B627B6A9BB203F0010338
:102A7400BB85BB8D7A6AD31A4FEA5303FB85BB8DA2
:102A84004FEA0323BB85FB8D012B02D9FB8DFF2B62
:102A940005D94FF00203FB854FF00003BB853B686B
:102AA400DA88BB8D13439AB2FB8D13439AB27B68C9
:102AB4001A843B681A883B6859883B6898883B6845
:102AC4009B8903439BB20B439BB213439AB2FB8B88
:102AD40013439BB243F40063FB837B68FA8B9A83B2
:102AE40007F13007BD4680BD80B483B000AF786085
:102AF4007B684FF000021A807B684FF000025A8016
:102B04007B684FF000029A807B684FF00002DA8005
:102B14007B684FF000021A817B684FF000025A81F3
:102B24007B684FF000029A817B684FF00002DA81E3
:102B34007B684FF007021A8207F10C07BD4680BC80
:102B4400704700BF80B483B000AF78607B684FF0FB
:102B540000021A807B684FF000025A807B684FF0B5
:102B640000029A807B684FF00002DA807B684FF0A5
:102B740002029A607B684FF000029A8107F10C0709
:102B8400BD4680BC704700BF80B582B000AF78609E
:102B94000B46FB707A684FF44053C4F201039A4227
:102BA40018D07A684FF46053C4F200039A4211D0EB
:102BB4007A684FF47053C4F200039A420AD04EF676
:102BC4004040C0F601004FF4D8714EF60D43C0F6F4
:102BD40001039847FB78002B0DD0FB78012B0AD01A
:102BE4004EF64040C0F6010040F2B1114EF60D43DE
:102BF400C0F601039847FB78002B08D07B681B883C
:102C04009BB243F040039AB27B681A8007E07B686A
:102C14001B889BB223F040039AB27B681A8007F1A9
:102C24000807BD4680BD00BF80B582B000AF7860A4
:102C34000B46FB707A684FF46053C4F200039A4267
:102C440011D07A684FF47053C4F200039A420AD048
:102C54004EF64040C0F601004FF4E4714EF60D43C9
:102C6400C0F601039847FB78002B0DD0FB78012BAD
:102C74000AD04EF64040C0F6010040F2C9114EF6AB
:102C84000D43C0F601039847FB78002B08D07B68FE
:102C94009B8B9BB243F480639AB27B689A8307E070
:102CA4007B689B8B9BB223F480639AB27B689A8384
:102CB40007F10807BD4680BD80B584B000AF7860D9
:102CC40013460A46FA70BB704FF00003FB814FF0C5
:102CD4000003BB817A684FF44053C4F201039A4263
:102CE40018D07A684FF46053C4F200039A4211D0AA
:102CF4007A684FF47053C4F200039A420AD04EF635
:102D04004040C0F601004FF4F4714EF60D43C0F696
:102D140001039847BB78002B0DD0BB78012B0AD058
:102D24004EF64040C0F6010040F2E9114EF60D4364
:102D3400C0F601039847FB78712B10D0FB78602B09
:102D44000DD0FB78502B0AD04EF64040C0F601005F
:102D54004FF4F5714EF60D43C0F601039847FB7826
:102D64004FEA1313DBB2FB81FB894FF0010202FA35
:102D740003F3BB81BB78002B08D07B689B889AB295
:102D8400BB8913439AB27B689A800AE07B689B886C
:102D94009AB2BB896FEA03039BB213409AB27B6871
:102DA4009A8007F11007BD4680BD00BF80B582B090
:102DB40000AF786013460A467A807B707A684FF4D5
:102DC4004053C4F201039A4218D07A684FF4605316
:102DD400C4F200039A4211D07A684FF47053C4F2DB
:102DE40000039A420AD04EF64040C0F6010040F279
:102DF4000E214EF60D43C0F6010398477B78002B55
:102E04000DD07B78012B0AD04EF64040C0F601006D
:102E140040F20F214EF60D43C0F6010398477A881D
:102E24004FF6FC731340002B02D17B88002B0AD190
:102E34004EF64040C0F601004FF404714EF60D43C7
:102E4400C0F6010398477B78002B08D07B689B88E9
:102E54009AB27B8813439AB27B689A800AE07B68B3
:102E64009B889AB27B886FEA03039BB213409AB2A1
:102E74007B689A8007F10807BD4680BD80B582B0A3
:102E840000AF78600B467B807A684FF44053C4F2FD
:102E940001039A4218D07A684FF46053C4F20003D5
:102EA4009A4211D07A684FF47053C4F200039A42E4
:102EB4000AD04EF64040C0F601004FF40A714EF6B7
:102EC4000D43C0F6010398477B687A889A8107F11D
:102ED4000807BD4680BD00BF80B582B000AF7860F2
:102EE4007A684FF44053C4F201039A4218D07A68C6
:102EF4004FF46053C4F200039A4211D07A684FF43D
:102F04007053C4F200039A420AD04EF64040C0F611
:102F140001004FF40E714EF60D43C0F601039847BD
:102F24007B689B899BB2184607F10807BD4680BDA4
:102F340080B582B000AF78600B467B807A684FF42E
:102F44004053C4F201039A4218D07A684FF4605394
:102F5400C4F200039A4211D07A684FF47053C4F259
:102F640000039A420AD04EF64040C0F6010040F2F7
:102F74004A214EF60D43C0F6010398477B88B3F50A
:102F8400807F0FD07A884FF6FF639A420AD04EF6BC
:102F94004040C0F6010040F24B214EF60D43C0F60E
:102FA400010398477A884FF6FF639A4208D07B68FA
:102FB4001B889BB243F480739AB27B681A8007E043
:102FC4007B681B889BB223F480739AB27B681A8057
:102FD40007F10807BD4680BD80B582B000AF7860B8
:102FE4000B46FB707A684FF44053C4F201039A42D3
:102FF40018D07A684FF46053C4F200039A4211D097
:103004007A684FF47053C4F200039A420AD04EF621
:103014004040C0F6010040F262214EF60D43C0F676
:1030240001039847FB78002B0DD0FB78012B0AD0C5
:103034004EF64040C0F6010040F263214EF60D43C7
:10304400C0F601039847FB78002B08D07B689B8867
:103054009BB243F004039AB27B689A8007E07B68D2
:103064009B889BB223F004039AB27B689A8007F191
:103074000807BD4680BD00BF80B582B000AF786050
:103084000B467B807A684FF44053C4F201039A42A2
:1030940018D07A684FF46053C4F200039A4211D0F6
:1030A4007A684FF47053C4F200039A420AD04EF681
:1030B4004040C0F601004FF41F714EF60D43C0F6B8
:1030C400010398477B88B3F5006F0DD07B88002BF4
:1030D4000AD04EF64040C0F6010040F27D214EF683
:1030E4000D43C0F6010398477B681B889BB223F409
:1030F40000639AB27B681A807B681B889AB27B88CB
:1031040013439AB27B681A8007F10807BD4680BD55
:1031140080B582B000AF78607A684FF44053C4F24F
:1031240001039A4218D07A684FF46053C4F2000342
:103134009A4211D07A684FF47053C4F200039A4251
:103144000AD04EF64040C0F601004FF423714EF60B
:103154000D43C0F6010398477B681B889BB243F478
:1031640080539AB27B681A8007F10807BD4680BD78
:1031740080B582B000AF78600B46FB707A684FF47C
:103184004053C4F201039A4218D07A684FF4605352
:10319400C4F200039A4211D07A684FF47053C4F217
:1031A40000039A420AD04EF64040C0F601004FF4A4
:1031B40027714EF60D43C0F601039847FB78002BA8
:1031C4000DD0FB78012B0AD04EF64040C0F601002A
:1031D40040F29D214EF60D43C0F601039847FB785B
:1031E400002B08D07B681B889BB243F400539AB22F
:1031F4007B681A8007E07B681B889BB223F400532A
:103204009AB27B681A8007F10807BD4680BD00BFEB
:1032140080B584B000AF78600B46FB704FF00003BC
:10322400FB817A684FF44053C4F201039A4218D0E8
:103234007A684FF46053C4F200039A4211D07A685A
:103244004FF47053C4F200039A420AD04EF6404041
:10325400C0F6010040F2B7214EF60D43C0F601035B
:103264009847FB78002B0DD0FB78012B0AD04EF643
:103274004040C0F601004FF42E714EF60D43C0F6E7
:1032840001039847FB78012B03D07B681B8BFB81E0
:1032940002E07B689B8AFB81FB89184607F11007D3
:1032A400BD4680BD80B582B000AF78607A684FF4C7
:1032B4004053C4F201039A4218D07A684FF4605321
:1032C400C4F200039A4211D07A684FF47053C4F2E6
:1032D40000039A420AD04EF64040C0F6010040F284
:1032E400CF214EF60D43C0F6010398477B681B8A35
:1032F4009BB2184607F10807BD4680BD80B582B071
:1033040000AF78600B467B807A684FF44053C4F278
:1033140001039A4218D07A684FF46053C4F2000350
:103324009A4211D07A684FF47053C4F200039A425F
:103334000AD04EF64040C0F6010040F2E1214EF6BC
:103344000D43C0F6010398477A884BF6FF739A42FF
:103354000ED07B88B3F5804F0AD04EF64040C0F6BD
:10336400010040F2E2214EF60D43C0F601039847F6
:103374007B88B3F5804F08D17B681B889BB243F4EC
:1033840080439AB27B681A8007E07B681B889BB2F3
:1033940023F480439AB27B681A8007F10807BD467C
:1033A40080BD00BF80B584B000AF78600B467B80E1
:1033B4004FF00003FB737A684FF44053C4F20103E7
:1033C4009A4218D07A684FF46053C4F200039A42C8
:1033D40011D07A684FF47053C4F200039A420AD0B1
:1033E4004EF64040C0F601004FF441714EF60D43D5
:1033F400C0F6010398477B88802B1FD07B88402B25
:103404001CD07B88202B19D07B88102B16D07B886E
:10341400082B13D07B88042B10D07B88022B0DD073
:103424007B88012B0AD04EF64040C0F6010040F2E2
:1034340005314EF60D43C0F6010398477B681B899E
:103444009AB27B8813409BB2002B03D04FF0010348
:10345400FB7302E04FF00003FB73FB7B184607F19C
:103464001007BD4680BD00BF80B582B000AF786054
:103474000B467B807A684FF44053C4F201039A42AE
:1034840018D07A684FF46053C4F200039A4211D002
:103494007A684FF47053C4F200039A420AD04EF68D
:1034A4004040C0F6010040F229314EF60D43C0F60B
:1034B400010398477B88102B0AD04EF64040C0F693
:1034C400010040F22A314EF60D43C0F6010398473D
:1034D4007B886FEA03039AB27B681A8107F10807B5
:1034E400BD4680BD80B584B000AF78600B46FB70EC
:1034F4004FF00003FB734FF00003BB814FF0000358
:103504007B814FF000033B817A684FF44053C4F24F
:1035140001039A4218D07A684FF46053C4F200034E
:103524009A4211D07A684FF47053C4F200039A425D
:103534000AD04EF64040C0F6010040F245314EF646
:103544000D43C0F601039847FB78602B19D0FB7834
:10355400712B16D0FB78532B13D0FB78542B10D03F
:10356400FB78552B0DD0FB78562B0AD04EF64040F5
:10357400C0F6010040F246314EF60D43C0F6010399
:103584009847FB7803F00F034FF0010202FA03F3AC
:10359400BB81FB784FEA1313DBB27B817B894FF04D
:1035A400010202FA03F37B817B689B889AB27B89D0
:1035B40013403B817B681B899AB2BB8913409BB241
:1035C400002B06D03B89002B03D04FF00103FB7383
:1035D40002E04FF00003FB73FB7B184607F1100772
:1035E400BD4680BD80B584B000AF78600B46FB70EB
:1035F4004FF00003FB817A684FF44053C4F2010397
:103604009A4218D07A684FF46053C4F200039A4285
:1036140011D07A684FF47053C4F200039A420AD06E
:103624004EF64040C0F6010040F279314EF60D43AB
:10363400C0F601039847FB78542B0AD04EF640405D
:10364400C0F6010040F27A314EF60D43C0F6010394
:103654009847FB7803F00F034FF0010202FA03F3DB
:10366400FB81FB896FEA03039AB27B681A8107F135
:103674001007BD4680BD00BF80B582B000AF0346D1
:10368400FB80FB88002B0AD144F64813C2F20003E6
:103694001B684FF001021A824FF000030DE044F65C
:1036A4007013C2F200031B681B68984744F6481362
:1036B400C2F200031B6803F10A03184607F1080766
:1036C400BD4680BD80B500AF44F64813C2F2000386
:1036D4001B68DA7840F2B803C2F200035B789A42BE
:1036E40025D844F64813C2F200031B689B78002BCC
:1036F4001DD144F64813C2F200031B689B88002BBB
:1037040015D144F64813C2F200031A6844F648136C
:10371400C2F200031B68DB78937244F67013C2F2A2
:1037240000031B685B6898474FF0000301E04FF00B
:103734000203184680BD00BF80B582B000AF0346C7
:10374400FB80FB88002B0AD144F64813C2F2000325
:103754001B684FF001021A824FF000030DE044F69B
:103764007013C2F200031B689B68984744F6481321
:10377400C2F200031B6803F10C03184607F10807A3
:10378400BD4680BD80B582B000AF44F64C13C2F292
:1037940000031B689A6944F64813C2F200031B68CD
:1037A400597944F64813C2F200031B68DB780846D3
:1037B400194690470346FB7144F64813C2F20003CE
:1037C4001B689B7A002B3AD0FB79002B0FD144F66F
:1037D4004813C2F200031B681B79002B07D144F67F
:1037E4004813C2F200031B689B78002B02D04FF0F1
:1037F400020326E0FB79002B21D144F67013C2F2B8
:1038040000031B68DB68984744F64813C2F20003C0
:103814001A6844F64813C2F200031B685B79D3723A
:1038240044F64813C2F200031A6844F64813C2F27D
:1038340000031B68DB7813734FF0000301E04FF0C3
:103844000203184607F10807BD4680BD80B584B061
:1038540000AF0346FB80FB88002B0AD144F64813D3
:10386400C2F200031B684FF002021A824FF00003F9
:10387400BFE043F62463C2F200034FF000021A8053
:1038840044F64813C2F200031B681B7803F07F035D
:10389400002B47D144F64813C2F200031B685B7A3D
:1038A400FB73FB7B03F02003002B0DD043F6246352
:1038B400C2F200031B7843F00203DAB243F6246336
:1038C400C2F200031A700CE043F62463C2F2000350
:1038D4001B7823F00203DAB243F62463C2F2000336
:1038E4001A70FB7B03F04003002B0DD043F62463D6
:1038F400C2F200031B7843F00103DAB243F62463F7
:10390400C2F200031A7069E043F62463C2F20003B2
:103914001B7823F00103DAB243F62463C2F20003F6
:103924001A705BE044F64813C2F200031B681B786C
:1039340003F07F03012B04D143F62463C2F2000396
:1039440057E044F64813C2F200031B681B7803F0E7
:103954007F03022B3FD144F64813C2F200031B68D5
:103964005B79BB73BB7B03F00F037B73BB7B5BB2E5
:10397400002B17DA7B7B184640F21563C0F6000370
:1039840098470346102B29D143F62463C2F200035F
:103994001B7843F00103DAB243F62463C2F2000356
:1039A4001A701BE07B7B184640F25563C0F6000397
:1039B40098470346B3F5805F10D143F62463C2F2FF
:1039C40000031B7843F00103DAB243F62463C2F226
:1039D40000031A7002E04FF000030AE044F670138B
:1039E400C2F200031B681B69984743F62463C2F2C2
:1039F4000003184607F11007BD4680BD80B586B0A8
:103A040000AF44F64813C2F200031B681B7803F0AE
:103A14007F033B613B69002B11D144F64813C2F28A
:103A240000031A6844F64813C2F200031B685B7A69
:103A340023F02003DBB253724FF00003B7E03B697D
:103A4400022B40F0B28044F64813C2F200031B6814
:103A54005B88002B07D144F64813C2F200031B68AD
:103A64001B79002B02D04FF00203A0E040F2B80310
:103A7400C2F20003FB6044F64813C2F200031B6861
:103A84005B79BB60BB6823F080037B607B683B6031
:103A940044F64813C2F200031B685B79DBB25BB2E5
:103AA400002B0BDA3B68DBB2184640F21563C0F614
:103AB4000003984703469BB27B610AE03B68DBB294
:103AC400184640F25563C0F60003984703469BB27C
:103AD4007B61FB681B781A467B689A420AD97B692A
:103AE400002B07D044F64813C2F200031B689B7AEC
:103AF400002B02D14FF0020359E0BB6803F08003AE
:103B0400002B15D03B68DBB2184640F21563C0F6B3
:103B1400000398470346102B3DD13B68DBB218469F
:103B24004FF0300140F23973C0F60003984732E099
:103B34003B68DBB2184640F25563C0F60003984771
:103B44000346B3F5805F26D13B68002B19D13B684F
:103B5400DAB240F2BC03C2F2000393F82C301046F0
:103B6400194640F69903C0F6000398473B68DBB258
:103B740018464FF4405140F2E163C0F60003984701
:103B840009E03B68DBB218464FF4405140F2E16370
:103B9400C0F60003984744F67013C2F200031B6892
:103BA4005B6998474FF0000301E04FF002031846A9
:103BB40007F11807BD4680BD80B584B000AF44F658
:103BC4004813C2F200031B685B79BB60BB6823F037
:103BD40080037B607B683B6044F64813C2F20003B9
:103BE4001B685B79DBB25BB2002B0BDA3B68DBB2A0
:103BF400184640F21563C0F60003984703469BB28B
:103C0400FB600AE03B68DBB2184640F25563C0F63D
:103C14000003984703469BB2FB6040F2B803C2F22C
:103C240000031B781A463B689A4212D944F648139B
:103C3400C2F200031B685B88002B0AD1FB68002BCF
:103C440007D044F64813C2F200031B689B7A002B8A
:103C540002D14FF0020322E0BB6803F08003002B83
:103C64000AD03B68DBB218464FF0100140F295636E
:103C7400C0F60003984709E03B68DBB218464FF4EE
:103C8400805140F2E163C0F60003984744F6701394
:103C9400C2F200031B689B6998474FF00003184663
:103CA40007F11007BD4680BD80B500AF44F6481348
:103CB400C2F200031A6844F64813C2F200031B68F8
:103CC4005B7A43F02003DBB2537244F67013C2F202
:103CD40000031B68DB6998474FF00003184680BD5A
:103CE40080B485B000AF03463960FB8044F64813C6
:103CF400C2F200031B685B8AFB60FB88002B0ED1B9
:103D040044F64813C2F200031B683A689188FA68C3
:103D140092B28A1A92B21A824FF0000303E03B680F
:103D24001A68FB68D318184607F11407BD4680BC0F
:103D3400704700BF80B584B000AF44F64813C2F2A8
:103D440000031B6803F11003BB60BB681B887B6026
:103D5400BB689B68002B2BD07B68002B28D0BB68EA
:103D64009B88FB60FA687B689A4201D97B68FB6098
:103D7400BB689B68FA6892B2104698473860BB6883
:103D84001A88FB689BB2D31A9AB2BB681A80BB68C4
:103D94005A88FB689BB2D3189AB2BB685A804FF01A
:103DA40000003968FA6840F6F913C0F60103984731
:103DB400BB681B88002B16D044F21873C2F20003B0
:103DC4004FF440521A804FF000004FF0000140F6CB
:103DD4008103C0F60003984744F21A73C2F2000349
:103DE4004FF030021A80BB681A88BB689B889A42DD
:103DF40008D344F64813C2F200031B684FF00302D1
:103E04001A722AE0BB681B88002B08D044F64813BA
:103E1400C2F200031B684FF005021A721DE0BB6872
:103E24001B88002B19D144F64813C2F200031B6807
:103E34004FF006021A724FF000004FF000014FF0ED
:103E4400000240F6A523C0F60103984744F21A7312
:103E5400C2F200034FF030021A8007F11007BD468A
:103E640080BD00BF80B586B000AF44F64813C2F2EF
:103E740000031B6803F11003FB60FB681B88BB6035
:103E840044F64813C2F200031B681B7A7B61BB68CB
:103E9400002B35D17B69042B32D143F62863C2F25F
:103EA40000031B78012B1CD14FF000004FF00001E0
:103EB4004FF0000240F6A523C0F60103984744F2F0
:103EC4001A73C2F200034FF030021A804FF0040359
:103ED4007B6143F62863C2F200034FF000021A70BC
:103EE40059E04FF007037B614FF000004FF00001F1
:103EF4004FF0000240F6F913C0F6010398474AE078
:103F0400FB689B883B61BA683B699A4202D84FF0D0
:103F1400040301E04FF002037B613A69BB689A42F3
:103F240001D9BB683B61FB689B683A6992B2104651
:103F3400984778604FF0000079683A6940F6A52305
:103F4400C0F6010398473B699BB24FF00000194645
:103F540040F68103C0F600039847FB681A883B6962
:103F64009BB2D31A9AB2FB681A80FB685A883B69E1
:103F74009BB2D3189AB2FB685A8044F21A73C2F205
:103F840000034FF030021A8044F21873C2F20003A7
:103F94004FF440521A8044F64813C2F200031B68DF
:103FA4007A69D2B21A7207F11807BD4680BD00BF04
:103FB40080B584B000AF4FF00203FB7344F648139E
:103FC400C2F200031B685B787B6044F64813C2F2BC
:103FD40000031B681B7803F07F03002B40F08C80E8
:103FE4007B68092B07D143F2C963C0F600039847E5
:103FF4000346FB73B9E07B68052B35D144F64813BF
:10400400C2F200031B68DB78DBB25BB2002B17DB68
:1040140044F64813C2F200031B689B78002B0FD1AF
:1040240044F64813C2F200031B689B88002B07D197
:1040340044F64813C2F200031B689B7A002B03D09A
:104044004FF00803BB60C3E04FF00003FB7344F67A
:104054004813C2F200031B68DB78184644F60523B4
:10406400C0F60003984780E07B68032B1BD144F61D
:104074004813C2F200031B68DB78012B0FD144F60E
:104084004813C2F200031B689B88002B07D143F638
:10409400AD43C0F6000398470346FB7365E04FF059
:1040A4000203FB7362E07B68012B5ED144F6481384
:1040B400C2F200031B68DB78012B19D144F64813C4
:1040C400C2F200031B689B88002B11D144F64813ED
:1040D400C2F200031B685B7A03F02003002B07D0B5
:1040E40043F60123C0F6000398470346FB733DE003
:1040F4004FF00203FB7338E044F64813C2F20003A6
:104104001B681B7803F07F03012B0AD17B680B2B00
:104114002CD143F28973C0F6000398470346FB731E
:1041240024E044F64813C2F200031B681B7803F032
:104134007F03022B15D17B68012B07D143F60123A2
:10414400C0F6000398470346FB730FE07B68032B1C
:104154000CD143F6BD33C0F6000398470346FB7306
:1041640004E04FF00203FB7300E000BFFB7B002B75
:1041740012D044F64C13C2F200031B685B697A68E0
:10418400D2B2104698470346FB73FB7B032B03D143
:104194004FF00903BB601BE0FB7B002B03D04FF007
:1041A4000803BB6014E04FF00603BB604FF000004F
:1041B4004FF000014FF0000240F6A523C0F60103C2
:1041C400984744F21A73C2F200034FF030021A8087
:1041D40044F64813C2F200031B68BA68D2B21A72DA
:1041E40007F11007BD4680BD80B58AB000AF44F624
:1041F4004813C2F200031B685B78BB614FF00003F5
:104204007B624FF000037B61BB69062B33D144F61C
:104214004813C2F200031B681B7803F07F03002BD2
:1042240040F03A8144F64813C2F200031B689B78BD
:10423400FB74FB7C012B07D144F64C13C2F2000340
:104244001B68DB697B6227E1FB7C022B07D144F608
:104254004C13C2F200031B681B6A7B621CE1FB7CEB
:10426400032B40F0198144F64C13C2F200031B687F
:104274005B6A7B6210E1BB69002B40F0B38044F6BB
:104284004813C2F200031B685B88002B40F0AA802D
:1042940044F64813C2F200031B68DB88022B40F08B
:1042A400A18044F64813C2F200031B681B79002B5B
:1042B40040F0988044F64813C2F200031B681B7850
:1042C40003F07F03002B0DD144F64813C2F2000320
:1042D4001B689B88002B05D143F65103C0F60003ED
:1042E4007B62D8E044F64813C2F200031B681B78D3
:1042F40003F07F03012B22D144F64C13C2F20003D6
:104304001B689A6944F64813C2F200031B685B7980
:1043140018464FF0000190470346002B40F0BB8045
:1043240044F64813C2F200031B689B7A002B00F08A
:10433400B28043F65103C0F600037B62ABE044F65F
:104344004813C2F200031B681B7803F07F03022B9F
:1043540040F0A18044F64813C2F200031B685B7965
:1043640003F00F03FB6044F64813C2F200031B681A
:104374005B7903F07003BB6044F64813C2F2000398
:104384001B685B79DBB25BB2002B0BDAFB68DBB238
:10439400184640F21563C0F60003984703469BB2E3
:1043A400FB610AE0FB68DBB2184640F25563C0F6D5
:1043B4000003984703469BB2FB6140F2B803C2F284
:1043C40000031B781A46FB689A4264D9BB68002B29
:1043D40061D1FB69002B5ED043F65103C0F60003A4
:1043E4007B6258E0BB69082B0FD144F64813C2F234
:1043F40000031B681B7803F07F03002B4CD143F2AE
:104404007D63C0F600037B6246E0BB690A2B43D19F
:1044140044F64813C2F200031B681B7803F07F03C1
:10442400012B39D144F64813C2F200031B689B7A6E
:10443400002B31D044F64813C2F200031B685B889A
:10444400002B29D144F64813C2F200031B681B79E0
:10445400002B21D144F64813C2F200031B68DB8809
:10446400012B19D144F64C13C2F200031B689A695C
:1044740044F64813C2F200031B685B7918464FF0F8
:10448400000190470346002B06D143F23D73C0F66A
:1044940000037B6200E000BF7B6A002B17D044F668
:1044A4004813C2F200031B687A6992B25A8244F636
:1044B4004813C2F200031B687A6A9A617B6A4FF060
:1044C400000098474FF0000387F823301DE044F6BE
:1044D4004C13C2F200031B681A6944F64813C2F273
:1044E40000031B685B7818469047034687F823301F
:1044F40097F82330032B08D144F64813C2F2000383
:104504001B684FF009021A72AFE044F64813C2F276
:1045140000031B681A8A4FF6FF739A4208D144F6C7
:104524004813C2F200031B684FF009021A729CE0A0
:1045340097F82330022B07D044F64813C2F2000345
:104544001B681B8A002B08D144F64813C2F20003EF
:104554001B684FF008021A7287E044F64813C2F24F
:1045640000031B681B78DBB25BB2002B6DDA44F6E8
:104574004813C2F200031B68DB887B6044F64813CF
:10458400C2F200031B681B8A1A467B689A4208D948
:1045940044F64813C2F200031B687A6892B21A8286
:1045A40040E044F64813C2F200031B681A8A44F63A
:1045B4004813C2F200031B68DB889A4232D244F6E5
:1045C4004813C2F200031B681A8A44F64C13C2F261
:1045D40000031B6893F82C309A4207D243F62863F1
:1045E400C2F200034FF000021A701BE044F64813B5
:1045F400C2F200031B681B8A1A4644F64C13C2F22B
:1046040000031B6893F82C3092FBF3F103FB01F3D6
:10461400D31A002B06D143F62863C2F200034FF0ED
:1046240001021A7044F64813C2F200031A6844F6F1
:104634004C13C2F200031B6893F82C30938243F6A8
:104644006963C0F6000398470EE044F64813C2F2CB
:1046540000031B684FF003021A7244F21873C2F28B
:1046640000034FF440521A8000BF07F12807BD46EB
:1046740080BD00BF90B585B000AF4FF00003FB8153
:104684004FF0000040F6E943C0F601039847B860D4
:10469400BB685B697B6044F64813C2F200031B6885
:1046A4001B7A092B53D044F64813C2F200031A684C
:1046B4007B681978117003F101037B6044F6481399
:1046C400C2F200031A687B681978517003F1010380
:1046D4007B607A68FB894FEA4303D3187B6044F616
:1046E4004813C2F200031C687B681A8803F10203B2
:1046F4007B60104640F6E503C0F600039847034686
:1047040063807A68FB894FEA4303D3187B6044F6DD
:104714004813C2F200031C687B681A8803F1020381
:104724007B60104640F6E503C0F600039847034655
:10473400A3807A68FB894FEA4303D3187B6044F66D
:104744004813C2F200031B687A681288DA8044F6C0
:104754004813C2F200031B684FF001021A7244F6B8
:104764004813C2F200031B68DB88002B05D143F613
:10477400B573C0F60003984704E044F2ED13C0F6A5
:104784000003984744F6FD03C0F600039847034628
:10479400184607F11407BD4690BD00BF80B582B02E
:1047A40000AF44F64813C2F200031B681B7A7B6017
:1047B4007B68022B02D07B68042B0CD143F669631F
:1047C400C0F60003984744F64813C2F200031B687E
:1047D4001B7A7B6035E07B68062B2FD144F64813A7
:1047E400C2F200031B685B78052B1CD144F6481306
:1047F400C2F200031B681B7803F07F03002B12D165
:1048040044F64813C2F200031B68DB78184644F6EA
:104814000523C0F60003984744F67013C2F2000360
:104824001B681B6A984744F64C13C2F200031B68CA
:104834009B6898474FF008037B6002E04FF0080341
:104844007B6044F64813C2F200031B687A68D2B254
:104854001A7244F6FD03C0F600039847034618464F
:1048640007F10807BD4680BD80B582B000AF44F6AD
:104874004813C2F200031B681B7A7B607B68022B1F
:1048840002D07B68042B03D14FF008037B6020E047
:104894007B68032B02D07B68052B0CD143F639537C
:1048A400C0F60003984744F64813C2F200031B689D
:1048B4001B7A7B600DE07B68072B07D144F64C1311
:1048C400C2F200031B68DB68984702E04FF008035C
:1048D4007B6044F64813C2F200031B687A68D2B2C4
:1048E4001A7244F6FD03C0F60003984703461846BF
:1048F40007F10807BD4680BD80B582B000AF40F225
:10490400BC03C2F2000393F82C304FF000001946A8
:1049140040F69903C0F60003984744F64813C2F2E0
:1049240000031B681B7A082B0ED144F21873C2F2E1
:1049340000034FF480521A8044F21A73C2F2000347
:104944004FF010021A804BE044F64813C2F2000301
:104954001B681B7A032B07D044F64813C2F20003EA
:104964001B681B7A072B19D14FF0000040F6B143A6
:10497400C0F60103984778607B684FF000025A70D4
:1049840078684BF6F163C0F60103984744F21A7352
:10499400C2F200034FF030021A8021E044F64813BB
:1049A400C2F200031B681B7A022B07D044F648139B
:1049B400C2F200031B681B7A062B11D14FF00000D2
:1049C40040F6B143C0F60103984778607B684FF026
:1049D40001025A7078684BF6F163C0F601039847F8
:1049E40044F64813C2F200031B681B7A092B14BF58
:1049F40000230123DBB2184607F10807BD4680BD3A
:104A040080B582B000AF0346FB71FB79184640F6CF
:104A14006943C0F60103984707F10807BD4680BD06
:104A240080B400AFBD4680BC704700BF80B582B083
:104A340000AF4FF000037B604BF2F153C0F601036B
:104A440098470346002B00F0A8804BF21563C0F68C
:104A54000103984703463B603B68002B02D14FF0AB
:104A640000039BE0FB7823F07F03DBB2002B08D02C
:104A740045F67963C0F60003984703467A68134302
:104A84007B607B7803F00803DBB2002B1DD040F27F
:104A94004013C2F200031B78DBB2002B05D04AF6A8
:104AA4008573C0F60103984706E04FF002004AF60A
:104AB400A573C0F60103984745F20573C0F60003D9
:104AC400984703467A6813437B603B7803F00803F6
:104AD400DBB2002B16D043F62C63C2F200031B7822
:104AE400DBB203F10103DAB243F62C63C2F2000332
:104AF4001A7045F23143C0F60003984703467A68BA
:104B040013437B603B7803F01003DBB2002B08D027
:104B140045F26D43C0F60003984703467A68134391
:104B24007B607B7803F02003DBB2002B08D045F6D2
:104B3400E503C0F60003984703467A6813437B6095
:104B44007B7803F01003DBB2002B08D045F24173ED
:104B5400C0F60003984703467A6813437B60BB782A
:104B640003F00403DBB2002B08D045F6FD13C0F6B6
:104B74000003984703467A6813437B60BB7803F0CD
:104B84000803DBB2002B08D045F66543C0F60003EA
:104B9400984703467A6813437B607B68184607F19D
:104BA4000807BD4680BD00BF80B500AF40F2FD439D
:104BB400C0F6000398474FF00003184680BD00BFBD
:104BC40080B584B000AF0346B9607A60FB73FB7BA9
:104BD4001846B9687A6840F6A523C0F601039847D9
:104BE4004FF00003184607F11007BD4680BD00BF13
:104BF40080B584B000AF03463960FB714FF0000309
:104C0400FB60FB79184640F6E943C0F60103984778
:104C1400B860BB689B69FB60FB7918463968FA6821
:104C240040F6F913C0F601039847FB68184607F1EC
:104C34001007BD4680BD00BF80B483B000AF0346FB
:104C44003960FB7197F90730002B10DA4FF46D438C
:104C5400CEF20003FA7902F00F02A2F104013A68DD
:104C6400D2B24FEA0212D2B25B181A760DE04FF4B8
:104C74006143CEF2000397F907103A68D2B24FEAC3
:104C84000212D2B25B1883F8002307F10C07BD4669
:104C940080BC704780B582B000AF78607A686FF0EE
:104CA4007F439A4202D94FF0010322E04EF21003EF
:104CB400CEF200037A6822F07F4202F1FF325A609A
:104CC4004FF0FF304FF00F0144F63D43C0F60003B0
:104CD40098474EF21003CEF200034FF000029A60A0
:104CE4004EF21003CEF200034FF007021A604FF0A9
:104CF4000003184607F10807BD4680BD80B400AF25
:104D0400BD4680BC704700BF80B500AF4FF00000C7
:104D140043F25D03C0F6010398474FF480504FF00F
:104D2400010143F24D53C0F60103984780BD00BF13
:104D340080B400AF44F67413C2F200034FF00302D0
:104D44001A60BD4680BC704780B483B000AF44F69F
:104D54005413C2F200037B607B689B7A002B07D05C
:104D640044F67413C2F200034FF005021A6006E021
:104D740044F67413C2F200034FF001021A6007F103
:104D84000C07BD4680BC704780B582B000AF4FF4BD
:104D9400C06045F66933C0F6010398474FF04303FA
:104DA4003B714FF001037B714FF00003BB714FF077
:104DB4000103FB7107F10403184645F6CD33C0F631
:104DC400010398474FF0F4033B714FF000037B71EC
:104DD4004FF00003BB714FF00103FB7107F10403B3
:104DE400184645F6CD33C0F6010398474FF0250326
:104DF4003B714FF000037B7107F10403184645F63D
:104E0400CD33C0F60103984707F10807BD4680BDBE
:104E140080B582B000AF0346FB71FB79002B0BD049
:104E24004FF44060C4F201004FF4804141F6ED4379
:104E3400C0F6010398470AE04FF44060C4F2010051
:104E44004FF4804141F63D43C0F60103984707F112
:104E54000807BD4680BD00BF80B500AF43F6306390
:104E6400C2F200034FF416521A6043F63063C2F2E2
:104E740000034FF000029A8043F63063C2F200034D
:104E84004FF00002DA8043F63063C2F200034FF4BD
:104E9400C0621A8143F63063C2F200034FF000028D
:104EA4009A8143F63063C2F200034FF00C025A8138
:104EB4004FF0000043F63061C2F2000140F6953332
:104EC400C0F6000398474FF46050C4F2010040F26A
:104ED40025514FF0010244F22133C0F601039847F3
:104EE40080BD00BF80B500AF40F2B003C2F2000342
:104EF4001B79012B0BD0022B11D0002B17D143F6B9
:104F04003063C2F200034FF00002DA8017E043F688
:104F14003063C2F200034FF44052DA800FE043F6EC
:104F24003063C2F200034FF40052DA8007E044F623
:104F34005D63C0F6000398474FF0000380E040F241
:104F4400B003C2F200035B79012B0BD0022B11D00A
:104F5400002B17D143F63063C2F200034FF0000276
:104F64001A8117E043F63063C2F200034FF4806203
:104F74001A810FE043F63063C2F200034FF4C062BB
:104F84001A8107E044F65D63C0F6000398474FF0CA
:104F9400000355E040F2B003C2F200039B79072BF3
:104FA40002D0082B08D01EE043F63063C2F200039F
:104FB4004FF000029A801EE043F63063C2F2000311
:104FC4001B89002B07D143F63063C2F200034FF074
:104FD40000029A800FE043F63063C2F200034FF4FC
:104FE40080529A8007E044F65D63C0F60003984758
:104FF4004FF0000324E040F2B003C2F200031A6849
:1050040043F63063C2F200031A6043F63063C2F21F
:1050140000034FF000029A8143F63063C2F20003AA
:105024004FF00C025A814FF0000043F63061C2F297
:10503400000140F69533C0F6000398474FF0010392
:10504400184680BD80B582B000AF78600B46FB7017
:10505400FB784FF0810079681A4644F6C533C0F6F0
:10506400000398474FF0010040F2D973C0F60003E3
:10507400984707F10807BD4680BD00BF80B582B0E0
:1050840000AF44F24C63C2F200031B78012B00F022
:10509400AF8044F24463C2F200031B68B3F5006FAF
:1050A40006D144F24463C2F200034FF000021A60D6
:1050B40044F24463C2F200031A6844F24063C2F249
:1050C40000031B689A4207D144F24C63C2F2000306
:1050D4004FF000021A708BE044F24463C2F2000302
:1050E4001A6844F24063C2F200031B689A420CD966
:1050F40044F24463C2F200031B68C3F5006244F245
:105104004863C2F200031A600FE044F24063C2F243
:1051140000031A6844F24463C2F200031B68D21A03
:1051240044F24863C2F200031A6044F24863C2F2D4
:1051340000031B68402B21D944F24463C2F20003EC
:105144001B68BB804FF04003FB8044F24463C2F20F
:1051540000031B6803F1400244F24463C2F20003FB
:105164001A6044F24863C2F200031B68A3F14002D0
:1051740044F24863C2F200031A6022E044F244633A
:10518400C2F200031B68BB8044F24863C2F200030E
:105194001B68FB8044F24463C2F200031A6844F2C1
:1051A4004863C2F200031B68D21844F24463C2F29B
:1051B40000031A6044F24863C2F200034FF0000295
:1051C4001A6044F24C63C2F200034FF001021A70F9
:1051D400FB884FF00100194640F68103C0F6000336
:1051E40098474FF0010040F2D973C0F60003984786
:1051F40007F10807BD4680BD98B500AF40F2B00383
:10520400C2F200039B79072B18D144F24063C2F227
:1052140000031C684FF46050C4F2010044F60523F7
:10522400C0F6010398470346DBB203F07F03DAB20A
:1052340043F64063C2F200031A551BE040F2B00388
:10524400C2F200039B79082B14D144F24063C2F2EA
:1052540000031C684FF46050C4F2010044F60523B7
:10526400C0F6010398470346DAB243F64063C2F23C
:1052740000031A5544F24063C2F200031B6803F1B1
:10528400010244F24063C2F200031A6044F2406334
:10529400C2F200031B68B3F5006F06D144F2406309
:1052A400C2F200034FF000021A6098BD80B584B0CA
:1052B40000AF4FF2E873C1F6FF731B68FB604FF257
:1052C400EC73C1F6FF731B68BB604FF2F073C1F659
:1052D400FF731B687B60FA687B68D318FB60FB680C
:1052E400002B11D0F8680A494FF0080245F21D332B
:1052F400C0F600039847B86806494FF0040245F227
:105304001D33C0F60003984707F11007BD4680BD62
:10531400820000209200002080B487B000AFF860C3
:10532400B9601346FB714FF00003FB754FF00003A7
:10533400FB7531E0FB684FEA1373092B0DD8FB7D35
:105344004FEA4303BA68D318FA684FEA1272D2B22A
:1053540002F13002D2B21A700CE0FB7D4FEA430333
:10536400BA68D318FA684FEA1272D2B202F137025D
:10537400D2B21A70FB684FEA0313FB60FB7D4FEA5D
:10538400430303F10103BA68D3184FF000021A7003
:10539400FB7D03F10103FB75FA7DFB799A42C9D3C6
:1053A40007F11C07BD4680BC704700BF80B588B0BC
:1053B40000AF78604FF0040045F62563C0F60103A2
:1053C400984707F10C03184643F2ED23C0F6010396
:1053D40098473A694DF68363C4F21B33A3FB021367
:1053E4004FEA93437A6802FB03F3184644F6994361
:1053F400C0F6000398474EF21003CEF200034EF2BB
:105404001002CEF20002126822F002021A6000BFFB
:105414004EF21003CEF200031B6803F48033002B1A
:10542400F6D007F12007BD4680BD00BF80B582B02D
:1054340000AF4FF000037B6045F27573C0F60103C3
:1054440098477B6843F008037B6044F67C13C2F200
:1054540000031B687A685A614FF00103184607F18C
:105464000807BD4680BD00BF80B584B000AF4FF0D3
:105474000003BB604FF000037B60BB6843F0100384
:10548400BB6044F67C13C2F200031A6844F67C1332
:10549400C2F200031B689969BB686FEA03030B40FF
:1054A400936144F67C13C2F200031B681B6A7B60A1
:1054B4007B68C3F30303DBB2184640F6E943C0F646
:1054C40001039847F8607B68C3F34343DBB203F1FD
:1054D400FF33052B00F2AC8001A252F823F000BF89
:1054E40035560008FD5400083556000835560008A6
:1054F40035560008F1550008BA8847F6F073134092
:105504009BB2002B6AD0FB689B68012B41D144F607
:105514002523C0F60003984744F21473C2F2000333
:105524001A6844F21073C2F20003D2187B68C3F302
:105534000A139BB2104619464BF26113C0F60103DD
:10554400984744F21473C2F200031A6844F21073C9
:10555400C2F20003D218FB685A6144F21473C2F217
:1055640000031B68012B07D144F21473C2F2000339
:105574004FF000021A6020E044F21473C2F20003F8
:105584001B6803F1010244F21473C2F200031A60AF
:1055940013E07B68C3F30A139BB244F29060C2F237
:1055A400000019464BF26113C0F601039847FA68EC
:1055B40044F29063C2F2000353617B68C3F30A139D
:1055C4009BB21A46FB689A61FB68DA697B68C3F38D
:1055D4000A139BB2D218FB68DA612AE07B68C3F332
:1055E4000A139BB21A46FB689A6122E044F2906067
:1055F400C2F200004FF008014BF26113C0F6010340
:105604009847FA6844F29063C2F200035361FB685E
:10561400DA697B68C3F30A139BB2D218FB68DA61B8
:105624007B68C3F30A139BB21A46FB689A6100E0D5
:1056340000BF44F62523C0F60003984744F67C13C4
:10564400C2F200031A6844F67C13C2F200031B681A
:105654009969BB680B4393614FF00103184607F146
:105664001007BD4680BD00BF80B500AF44F62523BA
:10567400C0F6000398474FF00103184680BD00BFF1
:1056840080B500AF44F62523C0F6000398474FF0D9
:105694000103184680BD00BF80B582B000AF4FF053
:1056A40000037B604FF000033B6044F62523C0F603
:1056B400000398473B6843F480633B6044F67C13E3
:1056C400C2F200031A6844F67C13C2F200031B689A
:1056D40099693B686FEA03030B4093617B6843F469
:1056E40080637B6044F67C13C2F200031B687A6813
:1056F4005A614FF00103184607F10807BD4680BD03
:1057040080B582B000AF4FF000037B6044F62523E0
:10571400C0F6000398477B6843F400637B6044F65B
:105724007C13C2F200031B687A685A614FF00103CC
:10573400184607F10807BD4680BD00BF80B588B094
:1057440000AF4FF00003FB614FF00003BB614FF06B
:1057540000037B614FF000033B614FF00003FB60EB
:105764004FF00003BB604FF000037B60BB6843F065
:105774000103BB6044F67C13C2F200035A6844F68A
:105784007C13C2F200035B685968BB686FEA0303C9
:105794000B4053604FF000004BF29543C0F60103F9
:1057A40098474FF00003FB611BE044F67C13C2F200
:1057B4000003FA6902F1020253F822304FF0FF02AB
:1057C4009A6044F67C13C2F20003FA6902F10602FD
:1057D40053F822304FF0FF029A60FB6903F1010392
:1057E400FB61FB69032BE0D944F67C13C2F200038E
:1057F4005B684FF0FF329A61BB694FF0010262F3BC
:105804000F03BB61BB694FF0010262F31F43BB612D
:1058140044F67C13C2F200035B68BA69DA617B69FF
:1058240043F008037B617B6943F040037B617B6940
:1058340043F001037B617B6943F002037B6144F61F
:105844007C13C2F200035B687A695A613B6943F0D6
:1058540001033B613B6943F008033B613B6943F04F
:1058640002033B6144F67C13C2F200035B683A69AD
:105874001A6144F67C13C2F200035B681B68FB6088
:10588400FB686FF30A13FB6044F67C13C2F2000357
:105894005B68FA681A6040F6B153C0F60103984792
:1058A4004FF000037B607B6843F480537B6044F6D5
:1058B4007C13C2F200031B687A685A6140F2BC038D
:1058C400C2F200035B68984744F62523C0F6000340
:1058D40098474FF00103184607F12007BD4680BDE5
:1058E40080B582B000AF4FF000037B604FF000033F
:1058F4003B604BF60123C0F60103984744F67C1342
:10590400C2F200031B68DB683B603B684FF009028E
:1059140062F38D233B6044F67C13C2F200031B68E0
:105924003A68DA6044F62523C0F6000398477B689A
:1059340043F400537B6044F67C13C2F200031B68FB
:105944007A685A614FF00103184607F10807BD460B
:1059540080BD00BF80B582B000AF4FF000037B6014
:1059640044F62523C0F6000398477B6843F480433C
:105974007B6044F67C13C2F200031B687A685A61A8
:105984004FF00103184607F10807BD4680BD00BF6C
:1059940080B582B000AF4FF000037B604FF000038E
:1059A4003B603B6843F400433B6044F67C13C2F223
:1059B40000031A6844F67C13C2F200031B68996959
:1059C4003B686FEA03030B40936144F62523C0F65A
:1059D400000398477B6843F400437B6044F67C13E0
:1059E400C2F200031B687A685A614FF0010318463B
:1059F40007F10807BD4680BD80B586B000AF4FF003
:105A040000037B614FF000033B614FF00003FB6038
:105A14004FF000037B604CF26123C0F6010398470A
:105A240078610DE17B6903F00103DBB2002B00F028
:105A3400FF80386940F6B143C0F601039847B86067
:105A4400B86845F6B563C0F60003984703467B6023
:105A54003B7903F00103DBB2002B59D0BB681B7800
:105A64004FF0010202FA03F3FB6044F67C13C2F226
:105A740000035A6844F67C13C2F200035B68596B56
:105A8400FB686FEA03030B4053634FF000037B6032
:105A94007B6843F001037B6044F67C13C2F200038D
:105AA4003A6902F1020253F822307A689A603B693B
:105AB400002B23D144F2A173C0F6000398473B693D
:105AC400DAB244F21873C2F200031B889BB2104688
